{
  "_format": "hh-sol-artifact-1",
  "contractName": "Swapify",
  "sourceName": "contracts/Swapify.sol",
  "abi": [
    {
      "inputs": [],
      "stateMutability": "nonpayable",
      "type": "constructor"
    },
    {
      "anonymous": false,
      "inputs": [
        {
          "indexed": false,
          "internalType": "address",
          "name": "seller",
          "type": "address"
        },
        {
          "indexed": false,
          "internalType": "address[]",
          "name": "swapTokens",
          "type": "address[]"
        },
        {
          "indexed": false,
          "internalType": "uint256[]",
          "name": "swapTokenIds",
          "type": "uint256[]"
        },
        {
          "indexed": false,
          "internalType": "address",
          "name": "buyer",
          "type": "address"
        },
        {
          "indexed": false,
          "internalType": "address[]",
          "name": "offerTokens",
          "type": "address[]"
        },
        {
          "indexed": false,
          "internalType": "uint256[]",
          "name": "offerTokenIds",
          "type": "uint256[]"
        }
      ],
      "name": "OfferAccepted",
      "type": "event"
    },
    {
      "anonymous": false,
      "inputs": [
        {
          "indexed": false,
          "internalType": "address",
          "name": "buyer",
          "type": "address"
        },
        {
          "indexed": false,
          "internalType": "uint256",
          "name": "swapId",
          "type": "uint256"
        },
        {
          "indexed": false,
          "internalType": "uint256",
          "name": "offerId",
          "type": "uint256"
        }
      ],
      "name": "OfferCancelled",
      "type": "event"
    },
    {
      "anonymous": false,
      "inputs": [
        {
          "indexed": false,
          "internalType": "address",
          "name": "buyer",
          "type": "address"
        },
        {
          "indexed": false,
          "internalType": "address[]",
          "name": "tokens",
          "type": "address[]"
        },
        {
          "indexed": false,
          "internalType": "uint256[]",
          "name": "tokenIds",
          "type": "uint256[]"
        }
      ],
      "name": "OfferProposed",
      "type": "event"
    },
    {
      "anonymous": false,
      "inputs": [],
      "name": "OfferRejected",
      "type": "event"
    },
    {
      "anonymous": false,
      "inputs": [
        {
          "indexed": false,
          "internalType": "address",
          "name": "seller",
          "type": "address"
        },
        {
          "indexed": false,
          "internalType": "address[]",
          "name": "tokens",
          "type": "address[]"
        },
        {
          "indexed": false,
          "internalType": "uint256[]",
          "name": "tokenIds",
          "type": "uint256[]"
        }
      ],
      "name": "SwapCreated",
      "type": "event"
    },
    {
      "inputs": [
        {
          "internalType": "uint256",
          "name": "_swapId",
          "type": "uint256"
        },
        {
          "internalType": "uint256",
          "name": "_offerId",
          "type": "uint256"
        }
      ],
      "name": "acceptOffer",
      "outputs": [],
      "stateMutability": "nonpayable",
      "type": "function"
    },
    {
      "inputs": [
        {
          "internalType": "uint256",
          "name": "_swapId",
          "type": "uint256"
        },
        {
          "internalType": "uint256",
          "name": "_offerId",
          "type": "uint256"
        }
      ],
      "name": "cancelOffer",
      "outputs": [],
      "stateMutability": "nonpayable",
      "type": "function"
    },
    {
      "inputs": [
        {
          "internalType": "address[]",
          "name": "_swapTokens",
          "type": "address[]"
        },
        {
          "internalType": "uint256[]",
          "name": "_swapTokenIds",
          "type": "uint256[]"
        },
        {
          "internalType": "string",
          "name": "_description",
          "type": "string"
        }
      ],
      "name": "createSwap",
      "outputs": [],
      "stateMutability": "nonpayable",
      "type": "function"
    },
    {
      "inputs": [
        {
          "internalType": "uint256",
          "name": "_swapId",
          "type": "uint256"
        },
        {
          "internalType": "uint256",
          "name": "_offerId",
          "type": "uint256"
        },
        {
          "internalType": "uint256",
          "name": "_tokenNumber",
          "type": "uint256"
        }
      ],
      "name": "getOfferToken",
      "outputs": [
        {
          "internalType": "address",
          "name": "token",
          "type": "address"
        },
        {
          "internalType": "uint256",
          "name": "tokenId",
          "type": "uint256"
        },
        {
          "internalType": "uint256",
          "name": "tokenNumbers",
          "type": "uint256"
        }
      ],
      "stateMutability": "view",
      "type": "function"
    },
    {
      "inputs": [
        {
          "internalType": "uint256",
          "name": "_swapId",
          "type": "uint256"
        },
        {
          "internalType": "uint256",
          "name": "_tokenNumber",
          "type": "uint256"
        }
      ],
      "name": "getSwapToken",
      "outputs": [
        {
          "internalType": "address",
          "name": "token",
          "type": "address"
        },
        {
          "internalType": "uint256",
          "name": "tokenId",
          "type": "uint256"
        },
        {
          "internalType": "uint256",
          "name": "tokenNumbers",
          "type": "uint256"
        }
      ],
      "stateMutability": "view",
      "type": "function"
    },
    {
      "inputs": [
        {
          "internalType": "uint256",
          "name": "",
          "type": "uint256"
        }
      ],
      "name": "offerExists",
      "outputs": [
        {
          "internalType": "bool",
          "name": "",
          "type": "bool"
        }
      ],
      "stateMutability": "view",
      "type": "function"
    },
    {
      "inputs": [
        {
          "internalType": "uint256",
          "name": "",
          "type": "uint256"
        },
        {
          "internalType": "uint256",
          "name": "",
          "type": "uint256"
        }
      ],
      "name": "offers",
      "outputs": [
        {
          "internalType": "enum Swapify.Status",
          "name": "status",
          "type": "uint8"
        },
        {
          "internalType": "address",
          "name": "buyer",
          "type": "address"
        },
        {
          "internalType": "uint256",
          "name": "swapId",
          "type": "uint256"
        }
      ],
      "stateMutability": "view",
      "type": "function"
    },
    {
      "inputs": [
        {
          "internalType": "uint256",
          "name": "_swapId",
          "type": "uint256"
        },
        {
          "internalType": "address[]",
          "name": "_offerTokens",
          "type": "address[]"
        },
        {
          "internalType": "uint256[]",
          "name": "_offerTokenIds",
          "type": "uint256[]"
        }
      ],
      "name": "proposeOffer",
      "outputs": [],
      "stateMutability": "nonpayable",
      "type": "function"
    },
    {
      "inputs": [],
      "name": "rejectOffer",
      "outputs": [],
      "stateMutability": "nonpayable",
      "type": "function"
    },
    {
      "inputs": [],
      "name": "swapCount",
      "outputs": [
        {
          "internalType": "uint256",
          "name": "",
          "type": "uint256"
        }
      ],
      "stateMutability": "view",
      "type": "function"
    },
    {
      "inputs": [
        {
          "internalType": "uint256",
          "name": "",
          "type": "uint256"
        }
      ],
      "name": "swaps",
      "outputs": [
        {
          "internalType": "enum Swapify.Status",
          "name": "status",
          "type": "uint8"
        },
        {
          "internalType": "string",
          "name": "description",
          "type": "string"
        },
        {
          "internalType": "address",
          "name": "seller",
          "type": "address"
        },
        {
          "internalType": "address",
          "name": "buyer",
          "type": "address"
        },
        {
          "internalType": "uint256",
          "name": "swapId",
          "type": "uint256"
        }
      ],
      "stateMutability": "view",
      "type": "function"
    },
    {
      "inputs": [],
      "name": "updateOffer",
      "outputs": [],
      "stateMutability": "nonpayable",
      "type": "function"
    },
    {
      "inputs": [
        {
          "internalType": "address",
          "name": "",
          "type": "address"
        },
        {
          "internalType": "uint256",
          "name": "",
          "type": "uint256"
        }
      ],
      "name": "userOffers",
      "outputs": [
        {
          "internalType": "enum Swapify.Status",
          "name": "status",
          "type": "uint8"
        },
        {
          "internalType": "address",
          "name": "buyer",
          "type": "address"
        },
        {
          "internalType": "uint256",
          "name": "swapId",
          "type": "uint256"
        }
      ],
      "stateMutability": "view",
      "type": "function"
    },
    {
      "inputs": [
        {
          "internalType": "address",
          "name": "",
          "type": "address"
        }
      ],
      "name": "userOffersCount",
      "outputs": [
        {
          "internalType": "uint256",
          "name": "",
          "type": "uint256"
        }
      ],
      "stateMutability": "view",
      "type": "function"
    },
    {
      "inputs": [
        {
          "internalType": "address",
          "name": "",
          "type": "address"
        }
      ],
      "name": "userSwapCount",
      "outputs": [
        {
          "internalType": "uint256",
          "name": "",
          "type": "uint256"
        }
      ],
      "stateMutability": "view",
      "type": "function"
    },
    {
      "inputs": [
        {
          "internalType": "address",
          "name": "",
          "type": "address"
        },
        {
          "internalType": "uint256",
          "name": "",
          "type": "uint256"
        }
      ],
      "name": "userSwaps",
      "outputs": [
        {
          "internalType": "enum Swapify.Status",
          "name": "status",
          "type": "uint8"
        },
        {
          "internalType": "string",
          "name": "description",
          "type": "string"
        },
        {
          "internalType": "address",
          "name": "seller",
          "type": "address"
        },
        {
          "internalType": "address",
          "name": "buyer",
          "type": "address"
        },
        {
          "internalType": "uint256",
          "name": "swapId",
          "type": "uint256"
        }
      ],
      "stateMutability": "view",
      "type": "function"
    }
  ],
  "bytecode": "0x608060405234801561001057600080fd5b50611a73806100206000396000f3fe608060405234801561001057600080fd5b50600436106101005760003560e01c806387d2d3e611610097578063d45557cc11610066578063d45557cc14610260578063efd998ad14610105578063f09c582914610273578063f5b550361461028657600080fd5b806387d2d3e6146101e3578063ad6573b914610207578063b5c835921461021a578063bd5fec651461024d57600080fd5b80634d03a9a5116100d35780634d03a9a514610156578063543aa9fe146101785780637dcdb2861461019857806381257bd5146101d057600080fd5b80630cdf763f14610105578063187e9e68146101075780631baff5511461013a5780632eff0d9e1461014d575b600080fd5b005b61012761011536600461158b565b60076020526000908152604090205481565b6040519081526020015b60405180910390f35b6101056101483660046115d5565b610299565b61012760005481565b610169610164366004611729565b610557565b604051610131939291906118bb565b61012761018636600461158b565b60066020526000908152604090205481565b6101ab6101a636600461174a565b6105a5565b604080516001600160a01b039094168452602084019290925290820152606001610131565b6101056101de366004611729565b6106df565b6101f66101f13660046115ac565b610d0d565b6040516101319594939291906118e3565b6101ab610215366004611729565b610df6565b61023d6102283660046116a7565b60036020526000908152604090205460ff1681565b6040519015158152602001610131565b61016961025b3660046115ac565b610e9d565b61010561026e366004611729565b610eb9565b6101f66102813660046116a7565b6110b1565b6101056102943660046116bf565b6110d8565b81518351146102d95760405162461bcd60e51b8152602060048201526007602482015266042d8cadccee8d60cb1b60448201526064015b60405180910390fd5b600080546040805160e081018252600180825260208083018790523383850152606083018690526080830189905260a0830188905260c0830185905284865281905291909320835181549394938493839160ff19169083600481111561034f57634e487b7160e01b600052602160045260246000fd5b0217905550602082810151805161036c9260018501920190611374565b5060408201516002820180546001600160a01b039283166001600160a01b0319918216179091556060840151600384018054919093169116179055608082015180516103c29160048401916020909101906113f8565b5060a082015180516103de91600584019160209091019061144d565b5060c091909101516006909101553360009081526004602081815260408320805460018181018355918552919093208451600790920201805485949193849260ff199092169190849081111561044457634e487b7160e01b600052602160045260246000fd5b021790555060208281015180516104619260018501920190611374565b5060408201516002820180546001600160a01b039283166001600160a01b0319918216179091556060840151600384018054919093169116179055608082015180516104b79160048401916020909101906113f8565b5060a082015180516104d391600584019160209091019061144d565b5060c091909101516006909101556000805490806104f083611a00565b909155505033600090815260066020526040812080549161051083611a00565b91905055507fb51d5b2b6761a67ee39dec4e4fcfd559b7b91ec98ea3a04ff6b76e2653da72da33868660405161054893929190611809565b60405180910390a15050505050565b6002602052816000526040600020818154811061057357600080fd5b60009182526020909120600490910201805460039091015460ff821693506101009091046001600160a01b0316915083565b6000838152600260205260408120805482918291869081106105d757634e487b7160e01b600052603260045260246000fd5b9060005260206000209060040201600101848154811061060757634e487b7160e01b600052603260045260246000fd5b60009182526020808320909101548883526002909152604090912080546001600160a01b039092169450908690811061065057634e487b7160e01b600052603260045260246000fd5b9060005260206000209060040201600201848154811061068057634e487b7160e01b600052603260045260246000fd5b906000526020600020015491506002600087815260200190815260200160002085815481106106bf57634e487b7160e01b600052603260045260246000fd5b906000526020600020906004020160020180549050905093509350939050565b60008281526001602052604090206002015482906001600160a01b031633146107405760405162461bcd60e51b815260206004820152601360248201527213db9b1e4814d95b1b195c88105b1b1bddd959606a1b60448201526064016102d0565b6001600084815260026020526040902080548490811061077057634e487b7160e01b600052603260045260246000fd5b600091825260209091206004918202015460ff16908111156107a257634e487b7160e01b600052602160045260246000fd5b146107e15760405162461bcd60e51b815260206004820152600f60248201526e43616e7420416363657074206e6f7760881b60448201526064016102d0565b60008381526001602090815260408083206002908101549252822080546001600160a01b0390921692918590811061082957634e487b7160e01b600052603260045260246000fd5b600091825260208083206004928302015488845260018252604080852090930180548451818502810185019095528085526101009092046001600160a01b03169550918301828280156108a557602002820191906000526020600020905b81546001600160a01b03168152600190910190602001808311610887575b5050505050905060006001600088815260200190815260200160002060050180548060200260200160405190810160405280929190818152602001828054801561090e57602002820191906000526020600020905b8154815260200190600101908083116108fa575b5050505050905060005b82518110156109fe5782818151811061094157634e487b7160e01b600052603260045260246000fd5b60200260200101516001600160a01b03166342842e0e868685858151811061097957634e487b7160e01b600052603260045260246000fd5b60209081029190910101516040516001600160e01b031960e086901b1681526001600160a01b0393841660048201529290911660248301526044820152606401600060405180830381600087803b1580156109d357600080fd5b505af11580156109e7573d6000803e3d6000fd5b5050505080806109f690611a00565b915050610918565b506000878152600260205260408120805488908110610a2d57634e487b7160e01b600052603260045260246000fd5b9060005260206000209060040201600101805480602002602001604051908101604052809291908181526020018280548015610a9257602002820191906000526020600020905b81546001600160a01b03168152600190910190602001808311610a74575b505050505090506000600260008a81526020019081526020016000208881548110610acd57634e487b7160e01b600052603260045260246000fd5b9060005260206000209060040201600201805480602002602001604051908101604052809291908181526020018280548015610b2857602002820191906000526020600020905b815481526020019060010190808311610b14575b5050505050905060005b8251811015610c1857828181518110610b5b57634e487b7160e01b600052603260045260246000fd5b60200260200101516001600160a01b03166342842e0e8789858581518110610b9357634e487b7160e01b600052603260045260246000fd5b60209081029190910101516040516001600160e01b031960e086901b1681526001600160a01b0393841660048201529290911660248301526044820152606401600060405180830381600087803b158015610bed57600080fd5b505af1158015610c01573d6000803e3d6000fd5b505050508080610c1090611a00565b915050610b32565b5060008981526001602090815260408083208054600360ff199091168117825590810180546001600160a01b0319166001600160a01b038b16179055600290925290912080548a908110610c7c57634e487b7160e01b600052603260045260246000fd5b906000526020600020906004020160000160006101000a81548160ff02191690836004811115610cbc57634e487b7160e01b600052602160045260246000fd5b02179055507fd8e10a064e68deb7801fcabc43361f2537ee211b2366c38ec20f01ab433ee714868585888686604051610cfa96959493929190611849565b60405180910390a1505050505050505050565b60046020528160005260406000208181548110610d2957600080fd5b60009182526020909120600790910201805460018201805460ff9092169450919250610d54906119c5565b80601f0160208091040260200160405190810160405280929190818152602001828054610d80906119c5565b8015610dcd5780601f10610da257610100808354040283529160200191610dcd565b820191906000526020600020905b815481529060010190602001808311610db057829003601f168201915b505050506002830154600384015460069094015492936001600160a01b03918216939116915085565b600082815260016020526040812060040180548291829185908110610e2b57634e487b7160e01b600052603260045260246000fd5b60009182526020808320909101548783526001909152604090912060050180546001600160a01b0390921694509085908110610e7757634e487b7160e01b600052603260045260246000fd5b600091825260208083209091015496825260019052604090206004015492959293505050565b6005602052816000526040600020818154811061057357600080fd5b600082815260026020526040902080548391839133919083908110610eee57634e487b7160e01b600052603260045260246000fd5b600091825260209091206004909102015461010090046001600160a01b031614610f4f5760405162461bcd60e51b815260206004820152601260248201527113db9b1e48109d5e595c88105b1b1bddd95960721b60448201526064016102d0565b60016000858152600260205260409020805485908110610f7f57634e487b7160e01b600052603260045260246000fd5b600091825260209091206004918202015460ff1690811115610fb157634e487b7160e01b600052602160045260246000fd5b14610ff25760405162461bcd60e51b815260206004820152601160248201527043616e27742043616e63656c6c206e6f7760781b60448201526064016102d0565b60008481526002602052604090208054600491908590811061102457634e487b7160e01b600052603260045260246000fd5b906000526020600020906004020160000160006101000a81548160ff0219169083600481111561106457634e487b7160e01b600052602160045260246000fd5b021790555060408051338152602081018690529081018490527fa916c06d382a32a2d52751a0f59721c029227671188c07a99233bf72bd3c679b906060015b60405180910390a150505050565b60016020819052600091825260409091208054918101805460ff90931692610d54906119c5565b80518251146111135760405162461bcd60e51b8152602060048201526007602482015266042d8cadccee8d60cb1b60448201526064016102d0565b60005483106111565760405162461bcd60e51b815260206004820152600f60248201526e125b9d985b1a590817dcddd85c1259608a1b60448201526064016102d0565b6040805160a0810182526001808252336020808401919091528284018690526060830185905260808301879052600087815260028252938420805480840182559085529320825160049485029091018054939485949193849260ff19169184908111156111d357634e487b7160e01b600052602160045260246000fd5b021790555060208281015182546001600160a01b0390911661010002610100600160a81b03199091161782556040830151805161121692600185019201906113f8565b506060820151805161123291600284019160209091019061144d565b506080919091015160039091015533600090815260056020908152604082208054600181810183559184529190922083516004928302909101805485949193849260ff199092169190849081111561129a57634e487b7160e01b600052602160045260246000fd5b021790555060208281015182546001600160a01b0390911661010002610100600160a81b0319909116178255604083015180516112dd92600185019201906113f8565b50606082015180516112f991600284019160209091019061144d565b506080919091015160039091015533600090815260076020526040812080549161132283611a00565b909155505060008481526003602052604090819020805460ff19166001179055517f92ce6ed4e3dd61f8d9b82803e03053e86f7dcaaa88a5e65c58d36db8227f8d06906110a390339086908690611809565b828054611380906119c5565b90600052602060002090601f0160209004810192826113a257600085556113e8565b82601f106113bb57805160ff19168380011785556113e8565b828001600101855582156113e8579182015b828111156113e85782518255916020019190600101906113cd565b506113f4929150611487565b5090565b8280548282559060005260206000209081019282156113e8579160200282015b828111156113e857825182546001600160a01b0319166001600160a01b03909116178255602090920191600190910190611418565b8280548282559060005260206000209081019282156113e857916020028201828111156113e85782518255916020019190600101906113cd565b5b808211156113f45760008155600101611488565b80356001600160a01b03811681146114b357600080fd5b919050565b600082601f8301126114c8578081fd5b813560206114dd6114d8836119a1565b611970565b80838252828201915082860187848660051b89010111156114fc578586fd5b855b858110156115215761150f8261149c565b845292840192908401906001016114fe565b5090979650505050505050565b600082601f83011261153e578081fd5b8135602061154e6114d8836119a1565b80838252828201915082860187848660051b890101111561156d578586fd5b855b858110156115215781358452928401929084019060010161156f565b60006020828403121561159c578081fd5b6115a58261149c565b9392505050565b600080604083850312156115be578081fd5b6115c78361149c565b946020939093013593505050565b6000806000606084860312156115e9578081fd5b833567ffffffffffffffff80821115611600578283fd5b61160c878388016114b8565b9450602091508186013581811115611622578384fd5b61162e8882890161152e565b945050604086013581811115611642578384fd5b8601601f81018813611652578384fd5b80358281111561166457611664611a27565b611676601f8201601f19168501611970565b9250808352888482840101111561168b578485fd5b8084830185850137820190920192909252509194909350909150565b6000602082840312156116b8578081fd5b5035919050565b6000806000606084860312156116d3578283fd5b83359250602084013567ffffffffffffffff808211156116f1578384fd5b6116fd878388016114b8565b93506040860135915080821115611712578283fd5b5061171f8682870161152e565b9150509250925092565b6000806040838503121561173b578182fd5b50508035926020909101359150565b60008060006060848603121561175e578283fd5b505081359360208301359350604090920135919050565b6000815180845260208085019450808401835b838110156117ad5781516001600160a01b031687529582019590820190600101611788565b509495945050505050565b6000815180845260208085019450808401835b838110156117ad578151875295820195908201906001016117cb565b6005811061180557634e487b7160e01b600052602160045260246000fd5b9052565b6001600160a01b038416815260606020820181905260009061182d90830185611775565b828103604084015261183f81856117b8565b9695505050505050565b600060018060a01b03808916835260c0602084015261186b60c0840189611775565b838103604085015261187d81896117b8565b9050818716606085015283810360808501526118998187611775565b91505082810360a08401526118ae81856117b8565b9998505050505050505050565b606081016118c982866117e7565b6001600160a01b0393909316602082015260400152919050565b6118ed81876117e7565b6000602060a08184015286518060a0850152825b8181101561191d5788810183015185820160c001528201611901565b8181111561192e578360c083870101525b50601f01601f1916830160c0019150611954905060408301866001600160a01b03169052565b6001600160a01b03939093166060820152608001529392505050565b604051601f8201601f1916810167ffffffffffffffff8111828210171561199957611999611a27565b604052919050565b600067ffffffffffffffff8211156119bb576119bb611a27565b5060051b60200190565b600181811c908216806119d957607f821691505b602082108114156119fa57634e487b7160e01b600052602260045260246000fd5b50919050565b6000600019821415611a2057634e487b7160e01b81526011600452602481fd5b5060010190565b634e487b7160e01b600052604160045260246000fdfea2646970667358221220ab406d402bb2b4ab0ad5d8d788d2ee75f6aa9a53385279b92ccc8849dd0217e664736f6c63430008040033",
  "linkReferences": {},
  "deployedLinkReferences": {}
}