{
  "_format": "hh-sol-artifact-1",
  "contractName": "Swapify",
  "sourceName": "contracts/Swapify.sol",
  "abi": [
    {
      "inputs": [],
      "stateMutability": "nonpayable",
      "type": "constructor"
    },
    {
      "anonymous": false,
      "inputs": [
        {
          "indexed": false,
          "internalType": "address",
          "name": "seller",
          "type": "address"
        },
        {
          "indexed": false,
          "internalType": "address[]",
          "name": "swapTokens",
          "type": "address[]"
        },
        {
          "indexed": false,
          "internalType": "uint256[]",
          "name": "swapTokenIds",
          "type": "uint256[]"
        },
        {
          "indexed": false,
          "internalType": "address",
          "name": "buyer",
          "type": "address"
        },
        {
          "indexed": false,
          "internalType": "address[]",
          "name": "offerTokens",
          "type": "address[]"
        },
        {
          "indexed": false,
          "internalType": "uint256[]",
          "name": "offerTokenIds",
          "type": "uint256[]"
        }
      ],
      "name": "OfferAccepted",
      "type": "event"
    },
    {
      "anonymous": false,
      "inputs": [
        {
          "indexed": false,
          "internalType": "address",
          "name": "buyer",
          "type": "address"
        },
        {
          "indexed": false,
          "internalType": "uint256",
          "name": "swapId",
          "type": "uint256"
        },
        {
          "indexed": false,
          "internalType": "uint256",
          "name": "offerId",
          "type": "uint256"
        }
      ],
      "name": "OfferCancelled",
      "type": "event"
    },
    {
      "anonymous": false,
      "inputs": [
        {
          "indexed": false,
          "internalType": "address",
          "name": "buyer",
          "type": "address"
        },
        {
          "indexed": false,
          "internalType": "address[]",
          "name": "tokens",
          "type": "address[]"
        },
        {
          "indexed": false,
          "internalType": "uint256[]",
          "name": "tokenIds",
          "type": "uint256[]"
        }
      ],
      "name": "OfferProposed",
      "type": "event"
    },
    {
      "anonymous": false,
      "inputs": [],
      "name": "OfferRejected",
      "type": "event"
    },
    {
      "anonymous": false,
      "inputs": [
        {
          "indexed": false,
          "internalType": "address",
          "name": "seller",
          "type": "address"
        },
        {
          "indexed": false,
          "internalType": "address[]",
          "name": "tokens",
          "type": "address[]"
        },
        {
          "indexed": false,
          "internalType": "uint256[]",
          "name": "tokenIds",
          "type": "uint256[]"
        }
      ],
      "name": "SwapCreated",
      "type": "event"
    },
    {
      "inputs": [
        {
          "internalType": "uint256",
          "name": "_swapId",
          "type": "uint256"
        },
        {
          "internalType": "uint256",
          "name": "_offerId",
          "type": "uint256"
        }
      ],
      "name": "acceptOffer",
      "outputs": [],
      "stateMutability": "nonpayable",
      "type": "function"
    },
    {
      "inputs": [
        {
          "internalType": "uint256",
          "name": "_swapId",
          "type": "uint256"
        },
        {
          "internalType": "uint256",
          "name": "_offerId",
          "type": "uint256"
        }
      ],
      "name": "cancelOffer",
      "outputs": [],
      "stateMutability": "nonpayable",
      "type": "function"
    },
    {
      "inputs": [
        {
          "internalType": "address[]",
          "name": "_swapTokens",
          "type": "address[]"
        },
        {
          "internalType": "uint256[]",
          "name": "_swapTokenIds",
          "type": "uint256[]"
        },
        {
          "internalType": "string",
          "name": "_description",
          "type": "string"
        }
      ],
      "name": "createSwap",
      "outputs": [],
      "stateMutability": "nonpayable",
      "type": "function"
    },
    {
      "inputs": [
        {
          "internalType": "uint256",
          "name": "",
          "type": "uint256"
        },
        {
          "internalType": "uint256",
          "name": "",
          "type": "uint256"
        }
      ],
      "name": "offers",
      "outputs": [
        {
          "internalType": "enum Swapify.Status",
          "name": "status",
          "type": "uint8"
        },
        {
          "internalType": "address",
          "name": "buyer",
          "type": "address"
        },
        {
          "internalType": "uint256",
          "name": "swapId",
          "type": "uint256"
        }
      ],
      "stateMutability": "view",
      "type": "function"
    },
    {
      "inputs": [
        {
          "internalType": "uint256",
          "name": "_swapId",
          "type": "uint256"
        },
        {
          "internalType": "address[]",
          "name": "_offerTokens",
          "type": "address[]"
        },
        {
          "internalType": "uint256[]",
          "name": "_offerTokenIds",
          "type": "uint256[]"
        }
      ],
      "name": "proposeOffer",
      "outputs": [],
      "stateMutability": "nonpayable",
      "type": "function"
    },
    {
      "inputs": [],
      "name": "rejectOffer",
      "outputs": [],
      "stateMutability": "nonpayable",
      "type": "function"
    },
    {
      "inputs": [],
      "name": "swapCount",
      "outputs": [
        {
          "internalType": "uint256",
          "name": "",
          "type": "uint256"
        }
      ],
      "stateMutability": "view",
      "type": "function"
    },
    {
      "inputs": [
        {
          "internalType": "uint256",
          "name": "",
          "type": "uint256"
        }
      ],
      "name": "swaps",
      "outputs": [
        {
          "internalType": "enum Swapify.Status",
          "name": "status",
          "type": "uint8"
        },
        {
          "internalType": "string",
          "name": "description",
          "type": "string"
        },
        {
          "internalType": "address",
          "name": "seller",
          "type": "address"
        },
        {
          "internalType": "address",
          "name": "buyer",
          "type": "address"
        },
        {
          "internalType": "uint256",
          "name": "swapId",
          "type": "uint256"
        }
      ],
      "stateMutability": "view",
      "type": "function"
    },
    {
      "inputs": [],
      "name": "updateOffer",
      "outputs": [],
      "stateMutability": "nonpayable",
      "type": "function"
    },
    {
      "inputs": [
        {
          "internalType": "address",
          "name": "",
          "type": "address"
        },
        {
          "internalType": "uint256",
          "name": "",
          "type": "uint256"
        }
      ],
      "name": "userOffers",
      "outputs": [
        {
          "internalType": "enum Swapify.Status",
          "name": "status",
          "type": "uint8"
        },
        {
          "internalType": "address",
          "name": "buyer",
          "type": "address"
        },
        {
          "internalType": "uint256",
          "name": "swapId",
          "type": "uint256"
        }
      ],
      "stateMutability": "view",
      "type": "function"
    },
    {
      "inputs": [
        {
          "internalType": "address",
          "name": "",
          "type": "address"
        }
      ],
      "name": "userOffersCount",
      "outputs": [
        {
          "internalType": "uint256",
          "name": "",
          "type": "uint256"
        }
      ],
      "stateMutability": "view",
      "type": "function"
    },
    {
      "inputs": [
        {
          "internalType": "address",
          "name": "",
          "type": "address"
        }
      ],
      "name": "userSwapCount",
      "outputs": [
        {
          "internalType": "uint256",
          "name": "",
          "type": "uint256"
        }
      ],
      "stateMutability": "view",
      "type": "function"
    },
    {
      "inputs": [
        {
          "internalType": "address",
          "name": "",
          "type": "address"
        },
        {
          "internalType": "uint256",
          "name": "",
          "type": "uint256"
        }
      ],
      "name": "userSwaps",
      "outputs": [
        {
          "internalType": "enum Swapify.Status",
          "name": "status",
          "type": "uint8"
        },
        {
          "internalType": "string",
          "name": "description",
          "type": "string"
        },
        {
          "internalType": "address",
          "name": "seller",
          "type": "address"
        },
        {
          "internalType": "address",
          "name": "buyer",
          "type": "address"
        },
        {
          "internalType": "uint256",
          "name": "swapId",
          "type": "uint256"
        }
      ],
      "stateMutability": "view",
      "type": "function"
    }
  ],
  "bytecode": "0x608060405234801561001057600080fd5b5061175a806100206000396000f3fe608060405234801561001057600080fd5b50600436106100cf5760003560e01c806381257bd51161008c578063d45557cc11610066578063d45557cc146101b1578063efd998ad146100d4578063f09c5829146101c4578063f5b55036146101d757600080fd5b806381257bd51461016757806387d2d3e61461017a578063bd5fec651461019e57600080fd5b80630cdf763f146100d4578063187e9e68146100d65780631baff551146101095780632eff0d9e1461011c5780634d03a9a514610125578063543aa9fe14610147575b600080fd5b005b6100f66100e436600461129d565b60066020526000908152604090205481565b6040519081526020015b60405180910390f35b6100d46101173660046112e7565b6101ea565b6100f660005481565b61013861013336600461143b565b6104aa565b604051610100939291906115a2565b6100f661015536600461129d565b60056020526000908152604090205481565b6100d461017536600461143b565b6104f8565b61018d6101883660046112be565b610b27565b6040516101009594939291906115ca565b6101386101ac3660046112be565b610c10565b6100d46101bf36600461143b565b610c2c565b61018d6101d23660046113b9565b610e24565b6100d46101e53660046113d1565b610e4b565b815183511461022a5760405162461bcd60e51b8152602060048201526007602482015266042d8cadccee8d60cb1b60448201526064015b60405180910390fd5b600080546040805160e08101825260018152602080820186905233828401819052606083018690526080830189905260a0830188905260c0830185905285526005905290832080549293919291610280836116e7565b90915550506000828152600160208190526040909120825181548493839160ff1916908360048111156102c357634e487b7160e01b600052602160045260246000fd5b021790555060208281015180516102e09260018501920190611086565b5060408201516002820180546001600160a01b039283166001600160a01b03199182161790915560608401516003840180549190931691161790556080820151805161033691600484019160209091019061110a565b5060a0820151805161035291600584019160209091019061115f565b5060c09190910151600690910155336000908152600360209081526040822080546001818101835591845291909220835160079092020180548493919291839160ff1916908360048111156103b757634e487b7160e01b600052602160045260246000fd5b021790555060208281015180516103d49260018501920190611086565b5060408201516002820180546001600160a01b039283166001600160a01b03199182161790915560608401516003840180549190931691161790556080820151805161042a91600484019160209091019061110a565b5060a0820151805161044691600584019160209091019061115f565b5060c09190910151600690910155600080549080610463836116e7565b91905055507fb51d5b2b6761a67ee39dec4e4fcfd559b7b91ec98ea3a04ff6b76e2653da72da33868660405161049b939291906114f0565b60405180910390a15050505050565b600260205281600052604060002081815481106104c657600080fd5b60009182526020909120600490910201805460039091015460ff821693506101009091046001600160a01b0316915083565b60008281526001602052604090206002015482906001600160a01b031633146105595760405162461bcd60e51b815260206004820152601360248201527213db9b1e4814d95b1b195c88105b1b1bddd959606a1b6044820152606401610221565b6001600084815260026020526040902080548490811061058957634e487b7160e01b600052603260045260246000fd5b600091825260209091206004918202015460ff16908111156105bb57634e487b7160e01b600052602160045260246000fd5b146105fb5760405162461bcd60e51b815260206004820152601060248201526f43616e277420416363657074206e6f7760801b6044820152606401610221565b60008381526001602090815260408083206002908101549252822080546001600160a01b0390921692918590811061064357634e487b7160e01b600052603260045260246000fd5b600091825260208083206004928302015488845260018252604080852090930180548451818502810185019095528085526101009092046001600160a01b03169550918301828280156106bf57602002820191906000526020600020905b81546001600160a01b031681526001909101906020018083116106a1575b5050505050905060006001600088815260200190815260200160002060050180548060200260200160405190810160405280929190818152602001828054801561072857602002820191906000526020600020905b815481526020019060010190808311610714575b5050505050905060005b82518110156108185782818151811061075b57634e487b7160e01b600052603260045260246000fd5b60200260200101516001600160a01b03166342842e0e868685858151811061079357634e487b7160e01b600052603260045260246000fd5b60209081029190910101516040516001600160e01b031960e086901b1681526001600160a01b0393841660048201529290911660248301526044820152606401600060405180830381600087803b1580156107ed57600080fd5b505af1158015610801573d6000803e3d6000fd5b505050508080610810906116e7565b915050610732565b50600087815260026020526040812080548890811061084757634e487b7160e01b600052603260045260246000fd5b90600052602060002090600402016001018054806020026020016040519081016040528092919081815260200182805480156108ac57602002820191906000526020600020905b81546001600160a01b0316815260019091019060200180831161088e575b505050505090506000600260008a815260200190815260200160002088815481106108e757634e487b7160e01b600052603260045260246000fd5b906000526020600020906004020160020180548060200260200160405190810160405280929190818152602001828054801561094257602002820191906000526020600020905b81548152602001906001019080831161092e575b5050505050905060005b8251811015610a325782818151811061097557634e487b7160e01b600052603260045260246000fd5b60200260200101516001600160a01b03166342842e0e87898585815181106109ad57634e487b7160e01b600052603260045260246000fd5b60209081029190910101516040516001600160e01b031960e086901b1681526001600160a01b0393841660048201529290911660248301526044820152606401600060405180830381600087803b158015610a0757600080fd5b505af1158015610a1b573d6000803e3d6000fd5b505050508080610a2a906116e7565b91505061094c565b5060008981526001602090815260408083208054600360ff199091168117825590810180546001600160a01b0319166001600160a01b038b16179055600290925290912080548a908110610a9657634e487b7160e01b600052603260045260246000fd5b906000526020600020906004020160000160006101000a81548160ff02191690836004811115610ad657634e487b7160e01b600052602160045260246000fd5b02179055507fd8e10a064e68deb7801fcabc43361f2537ee211b2366c38ec20f01ab433ee714868585888686604051610b1496959493929190611530565b60405180910390a1505050505050505050565b60036020528160005260406000208181548110610b4357600080fd5b60009182526020909120600790910201805460018201805460ff9092169450919250610b6e906116ac565b80601f0160208091040260200160405190810160405280929190818152602001828054610b9a906116ac565b8015610be75780601f10610bbc57610100808354040283529160200191610be7565b820191906000526020600020905b815481529060010190602001808311610bca57829003601f168201915b505050506002830154600384015460069094015492936001600160a01b03918216939116915085565b600460205281600052604060002081815481106104c657600080fd5b600082815260026020526040902080548391839133919083908110610c6157634e487b7160e01b600052603260045260246000fd5b600091825260209091206004909102015461010090046001600160a01b031614610cc25760405162461bcd60e51b815260206004820152601260248201527113db9b1e48109d5e595c88105b1b1bddd95960721b6044820152606401610221565b60016000858152600260205260409020805485908110610cf257634e487b7160e01b600052603260045260246000fd5b600091825260209091206004918202015460ff1690811115610d2457634e487b7160e01b600052602160045260246000fd5b14610d655760405162461bcd60e51b815260206004820152601160248201527043616e27742043616e63656c6c206e6f7760781b6044820152606401610221565b600084815260026020526040902080546004919085908110610d9757634e487b7160e01b600052603260045260246000fd5b906000526020600020906004020160000160006101000a81548160ff02191690836004811115610dd757634e487b7160e01b600052602160045260246000fd5b021790555060408051338152602081018690529081018490527fa916c06d382a32a2d52751a0f59721c029227671188c07a99233bf72bd3c679b906060015b60405180910390a150505050565b60016020819052600091825260409091208054918101805460ff90931692610b6e906116ac565b8051825114610e865760405162461bcd60e51b8152602060048201526007602482015266042d8cadccee8d60cb1b6044820152606401610221565b6040805160a0810182526001808252336020808401919091528284018690526060830185905260808301879052600087815260028252938420805480840182559085529320825160049485029091018054939485949193849260ff1916918490811115610f0357634e487b7160e01b600052602160045260246000fd5b021790555060208281015182546001600160a01b0390911661010002610100600160a81b031990911617825560408301518051610f46926001850192019061110a565b5060608201518051610f6291600284019160209091019061115f565b5060809190910151600390910155336000908152600460208181526040832080546001818101835591855291909320845191830201805485949193849260ff1990921691908490811115610fc657634e487b7160e01b600052602160045260246000fd5b021790555060208281015182546001600160a01b0390911661010002610100600160a81b031990911617825560408301518051611009926001850192019061110a565b506060820151805161102591600284019160209091019061115f565b506080919091015160039091015533600090815260066020526040812080549161104e836116e7565b91905055507f92ce6ed4e3dd61f8d9b82803e03053e86f7dcaaa88a5e65c58d36db8227f8d06338484604051610e16939291906114f0565b828054611092906116ac565b90600052602060002090601f0160209004810192826110b457600085556110fa565b82601f106110cd57805160ff19168380011785556110fa565b828001600101855582156110fa579182015b828111156110fa5782518255916020019190600101906110df565b50611106929150611199565b5090565b8280548282559060005260206000209081019282156110fa579160200282015b828111156110fa57825182546001600160a01b0319166001600160a01b0390911617825560209092019160019091019061112a565b8280548282559060005260206000209081019282156110fa57916020028201828111156110fa5782518255916020019190600101906110df565b5b80821115611106576000815560010161119a565b80356001600160a01b03811681146111c557600080fd5b919050565b600082601f8301126111da578081fd5b813560206111ef6111ea83611688565b611657565b80838252828201915082860187848660051b890101111561120e578586fd5b855b8581101561123357611221826111ae565b84529284019290840190600101611210565b5090979650505050505050565b600082601f830112611250578081fd5b813560206112606111ea83611688565b80838252828201915082860187848660051b890101111561127f578586fd5b855b8581101561123357813584529284019290840190600101611281565b6000602082840312156112ae578081fd5b6112b7826111ae565b9392505050565b600080604083850312156112d0578081fd5b6112d9836111ae565b946020939093013593505050565b6000806000606084860312156112fb578081fd5b833567ffffffffffffffff80821115611312578283fd5b61131e878388016111ca565b9450602091508186013581811115611334578384fd5b61134088828901611240565b945050604086013581811115611354578384fd5b8601601f81018813611364578384fd5b8035828111156113765761137661170e565b611388601f8201601f19168501611657565b9250808352888482840101111561139d578485fd5b8084830185850137820190920192909252509194909350909150565b6000602082840312156113ca578081fd5b5035919050565b6000806000606084860312156113e5578283fd5b83359250602084013567ffffffffffffffff80821115611403578384fd5b61140f878388016111ca565b93506040860135915080821115611424578283fd5b5061143186828701611240565b9150509250925092565b6000806040838503121561144d578182fd5b50508035926020909101359150565b6000815180845260208085019450808401835b838110156114945781516001600160a01b03168752958201959082019060010161146f565b509495945050505050565b6000815180845260208085019450808401835b83811015611494578151875295820195908201906001016114b2565b600581106114ec57634e487b7160e01b600052602160045260246000fd5b9052565b6001600160a01b03841681526060602082018190526000906115149083018561145c565b8281036040840152611526818561149f565b9695505050505050565b600060018060a01b03808916835260c0602084015261155260c084018961145c565b8381036040850152611564818961149f565b905081871660608501528381036080850152611580818761145c565b91505082810360a0840152611595818561149f565b9998505050505050505050565b606081016115b082866114ce565b6001600160a01b0393909316602082015260400152919050565b6115d481876114ce565b6000602060a08184015286518060a0850152825b818110156116045788810183015185820160c0015282016115e8565b81811115611615578360c083870101525b50601f01601f1916830160c001915061163b905060408301866001600160a01b03169052565b6001600160a01b03939093166060820152608001529392505050565b604051601f8201601f1916810167ffffffffffffffff811182821017156116805761168061170e565b604052919050565b600067ffffffffffffffff8211156116a2576116a261170e565b5060051b60200190565b600181811c908216806116c057607f821691505b602082108114156116e157634e487b7160e01b600052602260045260246000fd5b50919050565b600060001982141561170757634e487b7160e01b81526011600452602481fd5b5060010190565b634e487b7160e01b600052604160045260246000fdfea2646970667358221220e25f7f1a0bb220d36f2bb125b39a6065b6b8bd14b61111cf3dfd36413b788aba64736f6c63430008040033",
  "linkReferences": {},
  "deployedLinkReferences": {}
}