{
  "_format": "hh-sol-artifact-1",
  "contractName": "Swapify20",
  "sourceName": "contracts/Swapify20.sol",
  "abi": [
    {
      "inputs": [],
      "stateMutability": "nonpayable",
      "type": "constructor"
    },
    {
      "anonymous": false,
      "inputs": [
        {
          "indexed": false,
          "internalType": "address",
          "name": "seller",
          "type": "address"
        },
        {
          "indexed": false,
          "internalType": "address[]",
          "name": "swapTokens",
          "type": "address[]"
        },
        {
          "indexed": false,
          "internalType": "uint256[]",
          "name": "swapTokenIds",
          "type": "uint256[]"
        },
        {
          "indexed": false,
          "internalType": "address",
          "name": "buyer",
          "type": "address"
        },
        {
          "indexed": false,
          "internalType": "address[]",
          "name": "offerTokens",
          "type": "address[]"
        },
        {
          "indexed": false,
          "internalType": "uint256[]",
          "name": "offerTokenIds",
          "type": "uint256[]"
        },
        {
          "indexed": false,
          "internalType": "address[]",
          "name": "offerERC20",
          "type": "address[]"
        },
        {
          "indexed": false,
          "internalType": "uint256[]",
          "name": "amounts",
          "type": "uint256[]"
        }
      ],
      "name": "OfferAccepted",
      "type": "event"
    },
    {
      "anonymous": false,
      "inputs": [
        {
          "indexed": false,
          "internalType": "address",
          "name": "buyer",
          "type": "address"
        },
        {
          "indexed": false,
          "internalType": "uint256",
          "name": "swapId",
          "type": "uint256"
        },
        {
          "indexed": false,
          "internalType": "uint256",
          "name": "offerId",
          "type": "uint256"
        }
      ],
      "name": "OfferCancelled",
      "type": "event"
    },
    {
      "anonymous": false,
      "inputs": [
        {
          "indexed": false,
          "internalType": "address",
          "name": "buyer",
          "type": "address"
        },
        {
          "indexed": false,
          "internalType": "address[]",
          "name": "tokens",
          "type": "address[]"
        },
        {
          "indexed": false,
          "internalType": "uint256[]",
          "name": "tokenIds",
          "type": "uint256[]"
        },
        {
          "indexed": false,
          "internalType": "address[]",
          "name": "offerERC20",
          "type": "address[]"
        },
        {
          "indexed": false,
          "internalType": "uint256[]",
          "name": "amounts",
          "type": "uint256[]"
        }
      ],
      "name": "OfferProposed",
      "type": "event"
    },
    {
      "anonymous": false,
      "inputs": [],
      "name": "OfferRejected",
      "type": "event"
    },
    {
      "anonymous": false,
      "inputs": [
        {
          "indexed": false,
          "internalType": "address",
          "name": "seller",
          "type": "address"
        },
        {
          "indexed": false,
          "internalType": "address[]",
          "name": "tokens",
          "type": "address[]"
        },
        {
          "indexed": false,
          "internalType": "uint256[]",
          "name": "tokenIds",
          "type": "uint256[]"
        }
      ],
      "name": "SwapCreated",
      "type": "event"
    },
    {
      "inputs": [
        {
          "internalType": "uint256",
          "name": "_swapId",
          "type": "uint256"
        },
        {
          "internalType": "uint256",
          "name": "_offerId",
          "type": "uint256"
        }
      ],
      "name": "acceptOffer",
      "outputs": [],
      "stateMutability": "nonpayable",
      "type": "function"
    },
    {
      "inputs": [
        {
          "internalType": "uint256",
          "name": "_swapId",
          "type": "uint256"
        },
        {
          "internalType": "uint256",
          "name": "_offerId",
          "type": "uint256"
        }
      ],
      "name": "cancelOffer",
      "outputs": [],
      "stateMutability": "nonpayable",
      "type": "function"
    },
    {
      "inputs": [
        {
          "internalType": "address[]",
          "name": "_swapTokens",
          "type": "address[]"
        },
        {
          "internalType": "uint256[]",
          "name": "_swapTokenIds",
          "type": "uint256[]"
        },
        {
          "internalType": "string",
          "name": "_description",
          "type": "string"
        }
      ],
      "name": "createSwap",
      "outputs": [],
      "stateMutability": "nonpayable",
      "type": "function"
    },
    {
      "inputs": [
        {
          "internalType": "uint256",
          "name": "",
          "type": "uint256"
        },
        {
          "internalType": "uint256",
          "name": "",
          "type": "uint256"
        }
      ],
      "name": "offers",
      "outputs": [
        {
          "internalType": "enum Swapify20.Status",
          "name": "status",
          "type": "uint8"
        },
        {
          "internalType": "address",
          "name": "buyer",
          "type": "address"
        },
        {
          "internalType": "uint256",
          "name": "swapId",
          "type": "uint256"
        }
      ],
      "stateMutability": "view",
      "type": "function"
    },
    {
      "inputs": [
        {
          "internalType": "uint256",
          "name": "_swapId",
          "type": "uint256"
        },
        {
          "internalType": "address[]",
          "name": "_offerTokens",
          "type": "address[]"
        },
        {
          "internalType": "uint256[]",
          "name": "_offerTokenIds",
          "type": "uint256[]"
        },
        {
          "internalType": "address[]",
          "name": "_ERC20s",
          "type": "address[]"
        },
        {
          "internalType": "uint256[]",
          "name": "_amounts",
          "type": "uint256[]"
        }
      ],
      "name": "proposeOffer",
      "outputs": [],
      "stateMutability": "nonpayable",
      "type": "function"
    },
    {
      "inputs": [],
      "name": "rejectOffer",
      "outputs": [],
      "stateMutability": "nonpayable",
      "type": "function"
    },
    {
      "inputs": [],
      "name": "swapCount",
      "outputs": [
        {
          "internalType": "uint256",
          "name": "",
          "type": "uint256"
        }
      ],
      "stateMutability": "view",
      "type": "function"
    },
    {
      "inputs": [
        {
          "internalType": "uint256",
          "name": "",
          "type": "uint256"
        }
      ],
      "name": "swaps",
      "outputs": [
        {
          "internalType": "enum Swapify20.Status",
          "name": "status",
          "type": "uint8"
        },
        {
          "internalType": "string",
          "name": "description",
          "type": "string"
        },
        {
          "internalType": "address",
          "name": "seller",
          "type": "address"
        },
        {
          "internalType": "address",
          "name": "buyer",
          "type": "address"
        },
        {
          "internalType": "uint256",
          "name": "swapId",
          "type": "uint256"
        }
      ],
      "stateMutability": "view",
      "type": "function"
    },
    {
      "inputs": [],
      "name": "updateOffer",
      "outputs": [],
      "stateMutability": "nonpayable",
      "type": "function"
    },
    {
      "inputs": [
        {
          "internalType": "address",
          "name": "",
          "type": "address"
        },
        {
          "internalType": "uint256",
          "name": "",
          "type": "uint256"
        }
      ],
      "name": "userOffers",
      "outputs": [
        {
          "internalType": "enum Swapify20.Status",
          "name": "status",
          "type": "uint8"
        },
        {
          "internalType": "address",
          "name": "buyer",
          "type": "address"
        },
        {
          "internalType": "uint256",
          "name": "swapId",
          "type": "uint256"
        }
      ],
      "stateMutability": "view",
      "type": "function"
    },
    {
      "inputs": [
        {
          "internalType": "address",
          "name": "",
          "type": "address"
        }
      ],
      "name": "userOffersCount",
      "outputs": [
        {
          "internalType": "uint256",
          "name": "",
          "type": "uint256"
        }
      ],
      "stateMutability": "view",
      "type": "function"
    },
    {
      "inputs": [
        {
          "internalType": "address",
          "name": "",
          "type": "address"
        }
      ],
      "name": "userSwapCount",
      "outputs": [
        {
          "internalType": "uint256",
          "name": "",
          "type": "uint256"
        }
      ],
      "stateMutability": "view",
      "type": "function"
    },
    {
      "inputs": [
        {
          "internalType": "address",
          "name": "",
          "type": "address"
        },
        {
          "internalType": "uint256",
          "name": "",
          "type": "uint256"
        }
      ],
      "name": "userSwaps",
      "outputs": [
        {
          "internalType": "enum Swapify20.Status",
          "name": "status",
          "type": "uint8"
        },
        {
          "internalType": "string",
          "name": "description",
          "type": "string"
        },
        {
          "internalType": "address",
          "name": "seller",
          "type": "address"
        },
        {
          "internalType": "address",
          "name": "buyer",
          "type": "address"
        },
        {
          "internalType": "uint256",
          "name": "swapId",
          "type": "uint256"
        }
      ],
      "stateMutability": "view",
      "type": "function"
    }
  ],
  "bytecode": "0x608060405234801561001057600080fd5b50611c00806100206000396000f3fe608060405234801561001057600080fd5b50600436106100cf5760003560e01c8063543aa9fe1161008c578063bd5fec6511610066578063bd5fec65146101b1578063d45557cc146101c4578063efd998ad146100d4578063f09c5829146101d757600080fd5b8063543aa9fe1461015a57806381257bd51461017a57806387d2d3e61461018d57600080fd5b80630cdf763f146100d4578063187e9e68146100d65780631baff551146101095780632eff0d9e1461011c57806348e580b1146101255780634d03a9a514610138575b600080fd5b005b6100f66100e4366004611642565b60066020526000908152604090205481565b6040519081526020015b60405180910390f35b6100d461011736600461168c565b6101ea565b6100f660005481565b6100d4610133366004611796565b6104df565b61014b610146366004611848565b61083e565b60405161010093929190611a48565b6100f6610168366004611642565b60056020526000908152604090205481565b6100d4610188366004611848565b61088c565b6101a061019b366004611663565b61110f565b604051610100959493929190611a70565b61014b6101bf366004611663565b6111f8565b6100d46101d2366004611848565b611214565b6101a06101e536600461177e565b611404565b815183511461022a5760405162461bcd60e51b8152602060048201526007602482015266042d8cadccee8d60cb1b60448201526064015b60405180910390fd5b82516102625760405162461bcd60e51b8152602060048201526007602482015266060d8cadccee8d60cb1b6044820152606401610221565b600080546040805160e081018252600180825260208083018790523383850152606083018690526080830189905260a0830188905260c0830185905284865281905291909320835181549394938493839160ff1916908360048111156102d857634e487b7160e01b600052602160045260246000fd5b021790555060208281015180516102f5926001850192019061142b565b5060408201516002820180546001600160a01b039283166001600160a01b03199182161790915560608401516003840180549190931691161790556080820151805161034b9160048401916020909101906114af565b5060a08201518051610367916005840191602090910190611504565b5060c09190910151600690910155336000908152600360209081526040822080546001818101835591845291909220835160079092020180548493919291839160ff1916908360048111156103cc57634e487b7160e01b600052602160045260246000fd5b021790555060208281015180516103e9926001850192019061142b565b5060408201516002820180546001600160a01b039283166001600160a01b03199182161790915560608401516003840180549190931691161790556080820151805161043f9160048401916020909101906114af565b5060a0820151805161045b916005840191602090910190611504565b5060c0919091015160069091015560008054908061047883611b8d565b909155505033600090815260056020526040812080549161049883611b8d565b91905055507fb51d5b2b6761a67ee39dec4e4fcfd559b7b91ec98ea3a04ff6b76e2653da72da3386866040516104d0939291906118fd565b60405180910390a15050505050565b82518451146105215760405162461bcd60e51b815260206004820152600e60248201526d216c656e67746820746f6b656e7360901b6044820152606401610221565b80518251146105625760405162461bcd60e51b815260206004820152600d60248201526c0216c656e67746820455243323609c1b6044820152606401610221565b83511515806105715750815115155b6105a95760405162461bcd60e51b815260206004820152600960248201526830206c656e6774687360b81b6044820152606401610221565b6040805160e08101825260018152336020808301829052828401889052606083018790526080830186905260a0830185905260c08301899052600091825260069052918220805491926105fb83611b8d565b90915550506000868152600260209081526040822080546001818101835591845291909220835160069092020180548493919291839160ff19169083600481111561065657634e487b7160e01b600052602160045260246000fd5b021790555060208281015182546001600160a01b0390911661010002610100600160a81b03199091161782556040830151805161069992600185019201906114af565b50606082015180516106b5916002840191602090910190611504565b50608082015180516106d19160038401916020909101906114af565b5060a082015180516106ed916004840191602090910190611504565b5060c091909101516005909101553360009081526004602081815260408320805460018181018355918552919093208451600690920201805485949193849260ff199092169190849081111561075357634e487b7160e01b600052602160045260246000fd5b021790555060208281015182546001600160a01b0390911661010002610100600160a81b03199091161782556040830151805161079692600185019201906114af565b50606082015180516107b2916002840191602090910190611504565b50608082015180516107ce9160038401916020909101906114af565b5060a082015180516107ea916004840191602090910190611504565b5060c0820151816005015550507f974ba4ff3e6e52655e02f8ac5b112b616725041df60b57f55bda106863adbb02338686868660405161082e9594939291906119de565b60405180910390a1505050505050565b6002602052816000526040600020818154811061085a57600080fd5b60009182526020909120600690910201805460059091015460ff821693506101009091046001600160a01b0316915083565b60008281526001602052604090206002015482906001600160a01b031633146108ed5760405162461bcd60e51b815260206004820152601360248201527213db9b1e4814d95b1b195c88105b1b1bddd959606a1b6044820152606401610221565b6001600084815260026020526040902080548490811061091d57634e487b7160e01b600052603260045260246000fd5b600091825260209091206006909102015460ff16600481111561095057634e487b7160e01b600052602160045260246000fd5b146109905760405162461bcd60e51b815260206004820152601060248201526f43616e277420416363657074206e6f7760801b6044820152606401610221565b60008381526001602090815260408083206002908101549252822080546001600160a01b039092169291859081106109d857634e487b7160e01b600052603260045260246000fd5b600091825260208083206006929092029091015487835260018252604080842060040180548251818602810186019093528083526101009093046001600160a01b031695509092909190830182828015610a5b57602002820191906000526020600020905b81546001600160a01b03168152600190910190602001808311610a3d575b50505050509050600060016000888152602001908152602001600020600501805480602002602001604051908101604052809291908181526020018280548015610ac457602002820191906000526020600020905b815481526020019060010190808311610ab0575b5050505050905060005b8251811015610bb457828181518110610af757634e487b7160e01b600052603260045260246000fd5b60200260200101516001600160a01b03166342842e0e8686858581518110610b2f57634e487b7160e01b600052603260045260246000fd5b60209081029190910101516040516001600160e01b031960e086901b1681526001600160a01b0393841660048201529290911660248301526044820152606401600060405180830381600087803b158015610b8957600080fd5b505af1158015610b9d573d6000803e3d6000fd5b505050508080610bac90611b8d565b915050610ace565b506000878152600260205260408120805488908110610be357634e487b7160e01b600052603260045260246000fd5b9060005260206000209060060201600101805480602002602001604051908101604052809291908181526020018280548015610c4857602002820191906000526020600020905b81546001600160a01b03168152600190910190602001808311610c2a575b505050505090506000600260008a81526020019081526020016000208881548110610c8357634e487b7160e01b600052603260045260246000fd5b9060005260206000209060060201600201805480602002602001604051908101604052809291908181526020018280548015610cde57602002820191906000526020600020905b815481526020019060010190808311610cca575b505050505090508151600014610dd95760005b8251811015610dd757828181518110610d1a57634e487b7160e01b600052603260045260246000fd5b60200260200101516001600160a01b03166342842e0e8789858581518110610d5257634e487b7160e01b600052603260045260246000fd5b60209081029190910101516040516001600160e01b031960e086901b1681526001600160a01b0393841660048201529290911660248301526044820152606401600060405180830381600087803b158015610dac57600080fd5b505af1158015610dc0573d6000803e3d6000fd5b505050508080610dcf90611b8d565b915050610cf1565b505b600089815260026020526040812080548a908110610e0757634e487b7160e01b600052603260045260246000fd5b9060005260206000209060060201600301805480602002602001604051908101604052809291908181526020018280548015610e6c57602002820191906000526020600020905b81546001600160a01b03168152600190910190602001808311610e4e575b505050505090506000600260008c81526020019081526020016000208a81548110610ea757634e487b7160e01b600052603260045260246000fd5b9060005260206000209060060201600401805480602002602001604051908101604052809291908181526020018280548015610f0257602002820191906000526020600020905b815481526020019060010190808311610eee575b50505050509050815160001461101d5760005b825181101561101b57828181518110610f3e57634e487b7160e01b600052603260045260246000fd5b60200260200101516001600160a01b03166323b872dd898b858581518110610f7657634e487b7160e01b600052603260045260246000fd5b60209081029190910101516040516001600160e01b031960e086901b1681526001600160a01b0393841660048201529290911660248301526044820152606401602060405180830381600087803b158015610fd057600080fd5b505af1158015610fe4573d6000803e3d6000fd5b505050506040513d601f19601f82011682018060405250810190611008919061175e565b508061101381611b8d565b915050610f15565b505b60008b81526001602090815260408083208054600360ff199091168117825590810180546001600160a01b0319166001600160a01b038d16179055600290925290912080548c90811061108057634e487b7160e01b600052603260045260246000fd5b60009182526020909120600690910201805460ff191660018360048111156110b857634e487b7160e01b600052602160045260246000fd5b02179055507f7c4b1ac36879f29f24fcf73b4c55a5d189299e5a7aab7d669919575c1ab8153f8887878a888888886040516110fa98979695949392919061193d565b60405180910390a15050505050505050505050565b6003602052816000526040600020818154811061112b57600080fd5b60009182526020909120600790910201805460018201805460ff909216945091925061115690611b52565b80601f016020809104026020016040519081016040528092919081815260200182805461118290611b52565b80156111cf5780601f106111a4576101008083540402835291602001916111cf565b820191906000526020600020905b8154815290600101906020018083116111b257829003601f168201915b505050506002830154600384015460069094015492936001600160a01b03918216939116915085565b6004602052816000526040600020818154811061085a57600080fd5b60008281526002602052604090208054839183913391908390811061124957634e487b7160e01b600052603260045260246000fd5b600091825260209091206006909102015461010090046001600160a01b0316146112aa5760405162461bcd60e51b815260206004820152601260248201527113db9b1e48109d5e595c88105b1b1bddd95960721b6044820152606401610221565b600160008581526002602052604090208054859081106112da57634e487b7160e01b600052603260045260246000fd5b600091825260209091206006909102015460ff16600481111561130d57634e487b7160e01b600052602160045260246000fd5b1461134e5760405162461bcd60e51b815260206004820152601160248201527043616e27742043616e63656c6c206e6f7760781b6044820152606401610221565b60008481526002602052604090208054600491908590811061138057634e487b7160e01b600052603260045260246000fd5b60009182526020909120600690910201805460ff191660018360048111156113b857634e487b7160e01b600052602160045260246000fd5b021790555060408051338152602081018690529081018490527fa916c06d382a32a2d52751a0f59721c029227671188c07a99233bf72bd3c679b9060600160405180910390a150505050565b60016020819052600091825260409091208054918101805460ff9093169261115690611b52565b82805461143790611b52565b90600052602060002090601f016020900481019282611459576000855561149f565b82601f1061147257805160ff191683800117855561149f565b8280016001018555821561149f579182015b8281111561149f578251825591602001919060010190611484565b506114ab92915061153e565b5090565b82805482825590600052602060002090810192821561149f579160200282015b8281111561149f57825182546001600160a01b0319166001600160a01b039091161782556020909201916001909101906114cf565b82805482825590600052602060002090810192821561149f579160200282018281111561149f578251825591602001919060010190611484565b5b808211156114ab576000815560010161153f565b80356001600160a01b038116811461156a57600080fd5b919050565b600082601f83011261157f578081fd5b8135602061159461158f83611b2e565b611afd565b80838252828201915082860187848660051b89010111156115b3578586fd5b855b858110156115d8576115c682611553565b845292840192908401906001016115b5565b5090979650505050505050565b600082601f8301126115f5578081fd5b8135602061160561158f83611b2e565b80838252828201915082860187848660051b8901011115611624578586fd5b855b858110156115d857813584529284019290840190600101611626565b600060208284031215611653578081fd5b61165c82611553565b9392505050565b60008060408385031215611675578081fd5b61167e83611553565b946020939093013593505050565b6000806000606084860312156116a0578081fd5b833567ffffffffffffffff808211156116b7578283fd5b6116c38783880161156f565b94506020915081860135818111156116d9578384fd5b6116e5888289016115e5565b9450506040860135818111156116f9578384fd5b8601601f81018813611709578384fd5b80358281111561171b5761171b611bb4565b61172d601f8201601f19168501611afd565b92508083528884828401011115611742578485fd5b8084830185850137820190920192909252509194909350909150565b60006020828403121561176f578081fd5b8151801515811461165c578182fd5b60006020828403121561178f578081fd5b5035919050565b600080600080600060a086880312156117ad578081fd5b85359450602086013567ffffffffffffffff808211156117cb578283fd5b6117d789838a0161156f565b955060408801359150808211156117ec578283fd5b6117f889838a016115e5565b9450606088013591508082111561180d578283fd5b61181989838a0161156f565b9350608088013591508082111561182e578283fd5b5061183b888289016115e5565b9150509295509295909350565b6000806040838503121561185a578182fd5b50508035926020909101359150565b6000815180845260208085019450808401835b838110156118a15781516001600160a01b03168752958201959082019060010161187c565b509495945050505050565b6000815180845260208085019450808401835b838110156118a1578151875295820195908201906001016118bf565b600581106118f957634e487b7160e01b600052602160045260246000fd5b9052565b6001600160a01b038416815260606020820181905260009061192190830185611869565b828103604084015261193381856118ac565b9695505050505050565b6001600160a01b038981168252610100602083018190526000916119638483018c611869565b91508382036040850152611977828b6118ac565b9089166060850152838103608085015290506119938188611869565b905082810360a08401526119a781876118ac565b905082810360c08401526119bb8186611869565b905082810360e08401526119cf81856118ac565b9b9a5050505050505050505050565b6001600160a01b038616815260a060208201819052600090611a0290830187611869565b8281036040840152611a1481876118ac565b90508281036060840152611a288186611869565b90508281036080840152611a3c81856118ac565b98975050505050505050565b60608101611a5682866118db565b6001600160a01b0393909316602082015260400152919050565b611a7a81876118db565b6000602060a08184015286518060a0850152825b81811015611aaa5788810183015185820160c001528201611a8e565b81811115611abb578360c083870101525b50601f01601f1916830160c0019150611ae1905060408301866001600160a01b03169052565b6001600160a01b03939093166060820152608001529392505050565b604051601f8201601f1916810167ffffffffffffffff81118282101715611b2657611b26611bb4565b604052919050565b600067ffffffffffffffff821115611b4857611b48611bb4565b5060051b60200190565b600181811c90821680611b6657607f821691505b60208210811415611b8757634e487b7160e01b600052602260045260246000fd5b50919050565b6000600019821415611bad57634e487b7160e01b81526011600452602481fd5b5060010190565b634e487b7160e01b600052604160045260246000fdfea2646970667358221220c4e341a729dd5e0ec884a3d838f106d2488fde842e5bc5044ac51221974f80fc64736f6c63430008040033",
  "linkReferences": {},
  "deployedLinkReferences": {}
}