{
  "_format": "hh-sol-artifact-1",
  "contractName": "Token",
  "sourceName": "contracts/test/Token.sol",
  "abi": [
    {
      "inputs": [],
      "stateMutability": "nonpayable",
      "type": "constructor"
    },
    {
      "anonymous": false,
      "inputs": [
        {
          "indexed": true,
          "internalType": "address",
          "name": "owner",
          "type": "address"
        },
        {
          "indexed": true,
          "internalType": "address",
          "name": "approved",
          "type": "address"
        },
        {
          "indexed": true,
          "internalType": "uint256",
          "name": "tokenId",
          "type": "uint256"
        }
      ],
      "name": "Approval",
      "type": "event"
    },
    {
      "anonymous": false,
      "inputs": [
        {
          "indexed": true,
          "internalType": "address",
          "name": "owner",
          "type": "address"
        },
        {
          "indexed": true,
          "internalType": "address",
          "name": "operator",
          "type": "address"
        },
        {
          "indexed": false,
          "internalType": "bool",
          "name": "approved",
          "type": "bool"
        }
      ],
      "name": "ApprovalForAll",
      "type": "event"
    },
    {
      "anonymous": false,
      "inputs": [
        {
          "indexed": true,
          "internalType": "address",
          "name": "from",
          "type": "address"
        },
        {
          "indexed": true,
          "internalType": "address",
          "name": "to",
          "type": "address"
        },
        {
          "indexed": true,
          "internalType": "uint256",
          "name": "tokenId",
          "type": "uint256"
        }
      ],
      "name": "Transfer",
      "type": "event"
    },
    {
      "inputs": [
        {
          "internalType": "address",
          "name": "to",
          "type": "address"
        },
        {
          "internalType": "uint256",
          "name": "tokenId",
          "type": "uint256"
        }
      ],
      "name": "approve",
      "outputs": [],
      "stateMutability": "nonpayable",
      "type": "function"
    },
    {
      "inputs": [
        {
          "internalType": "address",
          "name": "owner",
          "type": "address"
        }
      ],
      "name": "balanceOf",
      "outputs": [
        {
          "internalType": "uint256",
          "name": "",
          "type": "uint256"
        }
      ],
      "stateMutability": "view",
      "type": "function"
    },
    {
      "inputs": [
        {
          "internalType": "uint256",
          "name": "tokenId",
          "type": "uint256"
        }
      ],
      "name": "getApproved",
      "outputs": [
        {
          "internalType": "address",
          "name": "",
          "type": "address"
        }
      ],
      "stateMutability": "view",
      "type": "function"
    },
    {
      "inputs": [
        {
          "internalType": "address",
          "name": "owner",
          "type": "address"
        },
        {
          "internalType": "address",
          "name": "operator",
          "type": "address"
        }
      ],
      "name": "isApprovedForAll",
      "outputs": [
        {
          "internalType": "bool",
          "name": "",
          "type": "bool"
        }
      ],
      "stateMutability": "view",
      "type": "function"
    },
    {
      "inputs": [],
      "name": "name",
      "outputs": [
        {
          "internalType": "string",
          "name": "",
          "type": "string"
        }
      ],
      "stateMutability": "view",
      "type": "function"
    },
    {
      "inputs": [
        {
          "internalType": "uint256",
          "name": "tokenId",
          "type": "uint256"
        }
      ],
      "name": "ownerOf",
      "outputs": [
        {
          "internalType": "address",
          "name": "",
          "type": "address"
        }
      ],
      "stateMutability": "view",
      "type": "function"
    },
    {
      "inputs": [
        {
          "internalType": "address",
          "name": "to",
          "type": "address"
        }
      ],
      "name": "safeMint",
      "outputs": [],
      "stateMutability": "nonpayable",
      "type": "function"
    },
    {
      "inputs": [
        {
          "internalType": "address",
          "name": "from",
          "type": "address"
        },
        {
          "internalType": "address",
          "name": "to",
          "type": "address"
        },
        {
          "internalType": "uint256",
          "name": "tokenId",
          "type": "uint256"
        }
      ],
      "name": "safeTransferFrom",
      "outputs": [],
      "stateMutability": "nonpayable",
      "type": "function"
    },
    {
      "inputs": [
        {
          "internalType": "address",
          "name": "from",
          "type": "address"
        },
        {
          "internalType": "address",
          "name": "to",
          "type": "address"
        },
        {
          "internalType": "uint256",
          "name": "tokenId",
          "type": "uint256"
        },
        {
          "internalType": "bytes",
          "name": "_data",
          "type": "bytes"
        }
      ],
      "name": "safeTransferFrom",
      "outputs": [],
      "stateMutability": "nonpayable",
      "type": "function"
    },
    {
      "inputs": [
        {
          "internalType": "address",
          "name": "operator",
          "type": "address"
        },
        {
          "internalType": "bool",
          "name": "approved",
          "type": "bool"
        }
      ],
      "name": "setApprovalForAll",
      "outputs": [],
      "stateMutability": "nonpayable",
      "type": "function"
    },
    {
      "inputs": [
        {
          "internalType": "bytes4",
          "name": "interfaceId",
          "type": "bytes4"
        }
      ],
      "name": "supportsInterface",
      "outputs": [
        {
          "internalType": "bool",
          "name": "",
          "type": "bool"
        }
      ],
      "stateMutability": "view",
      "type": "function"
    },
    {
      "inputs": [],
      "name": "symbol",
      "outputs": [
        {
          "internalType": "string",
          "name": "",
          "type": "string"
        }
      ],
      "stateMutability": "view",
      "type": "function"
    },
    {
      "inputs": [
        {
          "internalType": "uint256",
          "name": "tokenId",
          "type": "uint256"
        }
      ],
      "name": "tokenURI",
      "outputs": [
        {
          "internalType": "string",
          "name": "",
          "type": "string"
        }
      ],
      "stateMutability": "view",
      "type": "function"
    },
    {
      "inputs": [
        {
          "internalType": "address",
          "name": "from",
          "type": "address"
        },
        {
          "internalType": "address",
          "name": "to",
          "type": "address"
        },
        {
          "internalType": "uint256",
          "name": "tokenId",
          "type": "uint256"
        }
      ],
      "name": "transferFrom",
      "outputs": [],
      "stateMutability": "nonpayable",
      "type": "function"
    }
  ],
  "bytecode": "0x60806040523480156200001157600080fd5b5060408051808201825260058152642a37b5b2b760d91b6020808301918252835180850190945260038452624d544b60e81b9084015281519192916200005a9160009162000079565b5080516200007090600190602084019062000079565b5050506200015c565b82805462000087906200011f565b90600052602060002090601f016020900481019282620000ab5760008555620000f6565b82601f10620000c657805160ff1916838001178555620000f6565b82800160010185558215620000f6579182015b82811115620000f6578251825591602001919060010190620000d9565b506200010492915062000108565b5090565b5b8082111562000104576000815560010162000109565b600181811c908216806200013457607f821691505b602082108114156200015657634e487b7160e01b600052602260045260246000fd5b50919050565b611433806200016c6000396000f3fe608060405234801561001057600080fd5b50600436106100ea5760003560e01c80636352211e1161008c578063a22cb46511610066578063a22cb465146101e1578063b88d4fde146101f4578063c87b56dd14610207578063e985e9c51461021a57600080fd5b80636352211e146101a557806370a08231146101b857806395d89b41146101d957600080fd5b8063095ea7b3116100c8578063095ea7b31461015757806323b872dd1461016c57806340d097c31461017f57806342842e0e1461019257600080fd5b806301ffc9a7146100ef57806306fdde0314610117578063081812fc1461012c575b600080fd5b6101026100fd36600461112b565b610256565b60405190151581526020015b60405180910390f35b61011f6102a8565b60405161010e9190611213565b61013f61013a366004611163565b61033a565b6040516001600160a01b03909116815260200161010e565b61016a610165366004611102565b6103d4565b005b61016a61017a366004610fb8565b6104ea565b61016a61018d366004610f6c565b61051b565b61016a6101a0366004610fb8565b610544565b61013f6101b3366004611163565b61055f565b6101cb6101c6366004610f6c565b6105d6565b60405190815260200161010e565b61011f61065d565b61016a6101ef3660046110c8565b61066c565b61016a610202366004610ff3565b610677565b61011f610215366004611163565b6106af565b610102610228366004610f86565b6001600160a01b03918216600090815260056020908152604080832093909416825291909152205460ff1690565b60006001600160e01b031982166380ac58cd60e01b148061028757506001600160e01b03198216635b5e139f60e01b145b806102a257506301ffc9a760e01b6001600160e01b03198316145b92915050565b6060600080546102b790611338565b80601f01602080910402602001604051908101604052809291908181526020018280546102e390611338565b80156103305780601f1061030557610100808354040283529160200191610330565b820191906000526020600020905b81548152906001019060200180831161031357829003601f168201915b5050505050905090565b6000818152600260205260408120546001600160a01b03166103b85760405162461bcd60e51b815260206004820152602c60248201527f4552433732313a20617070726f76656420717565727920666f72206e6f6e657860448201526b34b9ba32b73a103a37b5b2b760a11b60648201526084015b60405180910390fd5b506000908152600460205260409020546001600160a01b031690565b60006103df8261055f565b9050806001600160a01b0316836001600160a01b0316141561044d5760405162461bcd60e51b815260206004820152602160248201527f4552433732313a20617070726f76616c20746f2063757272656e74206f776e656044820152603960f91b60648201526084016103af565b336001600160a01b038216148061046957506104698133610228565b6104db5760405162461bcd60e51b815260206004820152603860248201527f4552433732313a20617070726f76652063616c6c6572206973206e6f74206f7760448201527f6e6572206e6f7220617070726f76656420666f7220616c6c000000000000000060648201526084016103af565b6104e58383610797565b505050565b6104f43382610805565b6105105760405162461bcd60e51b81526004016103af90611278565b6104e58383836108fc565b600061052660065490565b9050610536600680546001019055565b6105408282610a98565b5050565b6104e583838360405180602001604052806000815250610677565b6000818152600260205260408120546001600160a01b0316806102a25760405162461bcd60e51b815260206004820152602960248201527f4552433732313a206f776e657220717565727920666f72206e6f6e657869737460448201526832b73a103a37b5b2b760b91b60648201526084016103af565b60006001600160a01b0382166106415760405162461bcd60e51b815260206004820152602a60248201527f4552433732313a2062616c616e636520717565727920666f7220746865207a65604482015269726f206164647265737360b01b60648201526084016103af565b506001600160a01b031660009081526003602052604090205490565b6060600180546102b790611338565b610540338383610ab2565b6106813383610805565b61069d5760405162461bcd60e51b81526004016103af90611278565b6106a984848484610b81565b50505050565b6000818152600260205260409020546060906001600160a01b031661072e5760405162461bcd60e51b815260206004820152602f60248201527f4552433732314d657461646174613a2055524920717565727920666f72206e6f60448201526e3732bc34b9ba32b73a103a37b5b2b760891b60648201526084016103af565b600061074560408051602081019091526000815290565b905060008151116107655760405180602001604052806000815250610790565b8061076f84610bb4565b6040516020016107809291906111a7565b6040516020818303038152906040525b9392505050565b600081815260046020526040902080546001600160a01b0319166001600160a01b03841690811790915581906107cc8261055f565b6001600160a01b03167f8c5be1e5ebec7d5bd14f71427d1e84f3dd0314c0f7b2291e5b200ac8c7c3b92560405160405180910390a45050565b6000818152600260205260408120546001600160a01b031661087e5760405162461bcd60e51b815260206004820152602c60248201527f4552433732313a206f70657261746f7220717565727920666f72206e6f6e657860448201526b34b9ba32b73a103a37b5b2b760a11b60648201526084016103af565b60006108898361055f565b9050806001600160a01b0316846001600160a01b031614806108c45750836001600160a01b03166108b98461033a565b6001600160a01b0316145b806108f457506001600160a01b0380821660009081526005602090815260408083209388168352929052205460ff165b949350505050565b826001600160a01b031661090f8261055f565b6001600160a01b0316146109735760405162461bcd60e51b815260206004820152602560248201527f4552433732313a207472616e736665722066726f6d20696e636f72726563742060448201526437bbb732b960d91b60648201526084016103af565b6001600160a01b0382166109d55760405162461bcd60e51b8152602060048201526024808201527f4552433732313a207472616e7366657220746f20746865207a65726f206164646044820152637265737360e01b60648201526084016103af565b6109e0600082610797565b6001600160a01b0383166000908152600360205260408120805460019290610a099084906112f5565b90915550506001600160a01b0382166000908152600360205260408120805460019290610a379084906112c9565b909155505060008181526002602052604080822080546001600160a01b0319166001600160a01b0386811691821790925591518493918716917fddf252ad1be2c89b69c2b068fc378daa952ba7f163c4a11628f55a4df523b3ef91a4505050565b610540828260405180602001604052806000815250610cce565b816001600160a01b0316836001600160a01b03161415610b145760405162461bcd60e51b815260206004820152601960248201527f4552433732313a20617070726f766520746f2063616c6c65720000000000000060448201526064016103af565b6001600160a01b03838116600081815260056020908152604080832094871680845294825291829020805460ff191686151590811790915591519182527f17307eab39ab6107e8899845ad3d59bd9653f200f220920489ca2b5937696c31910160405180910390a3505050565b610b8c8484846108fc565b610b9884848484610d01565b6106a95760405162461bcd60e51b81526004016103af90611226565b606081610bd85750506040805180820190915260018152600360fc1b602082015290565b8160005b8115610c025780610bec81611373565b9150610bfb9050600a836112e1565b9150610bdc565b60008167ffffffffffffffff811115610c2b57634e487b7160e01b600052604160045260246000fd5b6040519080825280601f01601f191660200182016040528015610c55576020820181803683370190505b5090505b84156108f457610c6a6001836112f5565b9150610c77600a8661138e565b610c829060306112c9565b60f81b818381518110610ca557634e487b7160e01b600052603260045260246000fd5b60200101906001600160f81b031916908160001a905350610cc7600a866112e1565b9450610c59565b610cd88383610e0e565b610ce56000848484610d01565b6104e55760405162461bcd60e51b81526004016103af90611226565b60006001600160a01b0384163b15610e0357604051630a85bd0160e11b81526001600160a01b0385169063150b7a0290610d459033908990889088906004016111d6565b602060405180830381600087803b158015610d5f57600080fd5b505af1925050508015610d8f575060408051601f3d908101601f19168201909252610d8c91810190611147565b60015b610de9573d808015610dbd576040519150601f19603f3d011682016040523d82523d6000602084013e610dc2565b606091505b508051610de15760405162461bcd60e51b81526004016103af90611226565b805181602001fd5b6001600160e01b031916630a85bd0160e11b1490506108f4565b506001949350505050565b6001600160a01b038216610e645760405162461bcd60e51b815260206004820181905260248201527f4552433732313a206d696e7420746f20746865207a65726f206164647265737360448201526064016103af565b6000818152600260205260409020546001600160a01b031615610ec95760405162461bcd60e51b815260206004820152601c60248201527f4552433732313a20746f6b656e20616c7265616479206d696e7465640000000060448201526064016103af565b6001600160a01b0382166000908152600360205260408120805460019290610ef29084906112c9565b909155505060008181526002602052604080822080546001600160a01b0319166001600160a01b03861690811790915590518392907fddf252ad1be2c89b69c2b068fc378daa952ba7f163c4a11628f55a4df523b3ef908290a45050565b80356001600160a01b0381168114610f6757600080fd5b919050565b600060208284031215610f7d578081fd5b61079082610f50565b60008060408385031215610f98578081fd5b610fa183610f50565b9150610faf60208401610f50565b90509250929050565b600080600060608486031215610fcc578081fd5b610fd584610f50565b9250610fe360208501610f50565b9150604084013590509250925092565b60008060008060808587031215611008578081fd5b61101185610f50565b935061101f60208601610f50565b925060408501359150606085013567ffffffffffffffff80821115611042578283fd5b818701915087601f830112611055578283fd5b813581811115611067576110676113ce565b604051601f8201601f19908116603f0116810190838211818310171561108f5761108f6113ce565b816040528281528a60208487010111156110a7578586fd5b82602086016020830137918201602001949094529598949750929550505050565b600080604083850312156110da578182fd5b6110e383610f50565b9150602083013580151581146110f7578182fd5b809150509250929050565b60008060408385031215611114578182fd5b61111d83610f50565b946020939093013593505050565b60006020828403121561113c578081fd5b8135610790816113e4565b600060208284031215611158578081fd5b8151610790816113e4565b600060208284031215611174578081fd5b5035919050565b6000815180845261119381602086016020860161130c565b601f01601f19169290920160200192915050565b600083516111b981846020880161130c565b8351908301906111cd81836020880161130c565b01949350505050565b6001600160a01b03858116825284166020820152604081018390526080606082018190526000906112099083018461117b565b9695505050505050565b602081526000610790602083018461117b565b60208082526032908201527f4552433732313a207472616e7366657220746f206e6f6e20455243373231526560408201527131b2b4bb32b91034b6b83632b6b2b73a32b960711b606082015260800190565b60208082526031908201527f4552433732313a207472616e736665722063616c6c6572206973206e6f74206f6040820152701ddb995c881b9bdc88185c1c1c9bdd9959607a1b606082015260800190565b600082198211156112dc576112dc6113a2565b500190565b6000826112f0576112f06113b8565b500490565b600082821015611307576113076113a2565b500390565b60005b8381101561132757818101518382015260200161130f565b838111156106a95750506000910152565b600181811c9082168061134c57607f821691505b6020821081141561136d57634e487b7160e01b600052602260045260246000fd5b50919050565b6000600019821415611387576113876113a2565b5060010190565b60008261139d5761139d6113b8565b500690565b634e487b7160e01b600052601160045260246000fd5b634e487b7160e01b600052601260045260246000fd5b634e487b7160e01b600052604160045260246000fd5b6001600160e01b0319811681146113fa57600080fd5b5056fea26469706673582212201d0bb528326a37762850fbb24f37295acf73c7a4d7b7bf5c6b84299814d5c67c64736f6c63430008040033",
  "linkReferences": {},
  "deployedLinkReferences": {}
}